{
  "contractName": "ERC721Creator",
  "abi": [
    {
      "inputs": [
        {
          "internalType": "string",
          "name": "name",
          "type": "string"
        },
        {
          "internalType": "string",
          "name": "symbol",
          "type": "string"
        }
      ],
      "stateMutability": "nonpayable",
      "type": "constructor"
    },
    {
      "stateMutability": "payable",
      "type": "fallback",
      "payable": true
    },
    {
      "stateMutability": "payable",
      "type": "receive",
      "payable": true
    },
    {
      "inputs": [],
      "name": "implementation",
      "outputs": [
        {
          "internalType": "address",
          "name": "",
          "type": "address"
        }
      ],
      "stateMutability": "view",
      "type": "function",
      "constant": true
    }
  ],
  "bytecode": "0x608060405234801561001057600080fd5b506040516107b93803806107b983398101604081905261002f9161030e565b61005a60017f360894a13ba1a3210667c828492db98dca3e2076cc3735a920a3ca505d382bbd6103f7565b6000805160206107728339815191521461008457634e487b7160e01b600052600160045260246000fd5b739c33d33c83350f1ef11136b3c5c913fec340d3f46100bd60008051602061077283398151915260001b61014860201b61008b1760201c565b80546001600160a01b0319166001600160a01b039290921691909117905560405161014090739c33d33c83350f1ef11136b3c5c913fec340d3f49061010890859085906024016103c9565b60408051601f19818403018152919052602080820180516001600160e01b031663266c45bb60e11b17905261008e61014b821b17901c565b505050610460565b90565b6060610170838360405180606001604052806027815260200161079260279139610177565b9392505050565b60606001600160a01b0384163b6101e45760405162461bcd60e51b815260206004820152602660248201527f416464726573733a2064656c65676174652063616c6c20746f206e6f6e2d636f6044820152651b9d1c9858dd60d21b60648201526084015b60405180910390fd5b600080856001600160a01b0316856040516101ff919061039a565b600060405180830381855af49150503d806000811461023a576040519150601f19603f3d011682016040523d82523d6000602084013e61023f565b606091505b50909250905061025082828661025a565b9695505050505050565b60608315610269575081610170565b8251156102795782518084602001fd5b8160405162461bcd60e51b81526004016101db91906103b6565b600082601f8301126102a3578081fd5b81516001600160401b03808211156102bd576102bd61044a565b604051601f8301601f19908116603f011681019082821181831017156102e5576102e561044a565b816040528381528660208588010111156102fd578485fd5b61025084602083016020890161041a565b60008060408385031215610320578182fd5b82516001600160401b0380821115610336578384fd5b61034286838701610293565b93506020850151915080821115610357578283fd5b5061036485828601610293565b9150509250929050565b6000815180845261038681602086016020860161041a565b601f01601f19169290920160200192915050565b600082516103ac81846020870161041a565b9190910192915050565b602081526000610170602083018461036e565b6040815260006103dc604083018561036e565b82810360208401526103ee818561036e565b95945050505050565b60008282101561041557634e487b7160e01b81526011600452602481fd5b500390565b60005b8381101561043557818101518382015260200161041d565b83811115610444576000848401525b50505050565b634e487b7160e01b600052604160045260246000fd5b6103038061046f6000396000f3fe6080604052600436106100225760003560e01c80635c60da1b1461003957610031565b366100315761002f61006a565b005b61002f61006a565b34801561004557600080fd5b5061004e61007c565b6040516001600160a01b03909116815260200160405180910390f35b61007a6100756100ba565b6100e8565b565b60006100866100ba565b905090565b90565b60606100b383836040518060600160405280602781526020016102a76027913961010c565b9392505050565b7f360894a13ba1a3210667c828492db98dca3e2076cc3735a920a3ca505d382bbc546001600160a01b031690565b3660008037600080366000845af43d6000803e808015610107573d6000f35b3d6000fd5b60606001600160a01b0384163b6101795760405162461bcd60e51b815260206004820152602660248201527f416464726573733a2064656c65676174652063616c6c20746f206e6f6e2d636f6044820152651b9d1c9858dd60d21b60648201526084015b60405180910390fd5b600080856001600160a01b0316856040516101949190610227565b600060405180830381855af49150503d80600081146101cf576040519150601f19603f3d011682016040523d82523d6000602084013e6101d4565b606091505b50915091506101e48282866101ee565b9695505050505050565b606083156101fd5750816100b3565b82511561020d5782518084602001fd5b8160405162461bcd60e51b81526004016101709190610243565b60008251610239818460208701610276565b9190910192915050565b6020815260008251806020840152610262816040850160208701610276565b601f01601f19169190910160400192915050565b60005b83811015610291578181015183820152602001610279565b838111156102a0576000848401525b5050505056fe416464726573733a206c6f772d6c6576656c2064656c65676174652063616c6c206661696c6564a26469706673582212208b6780a53976943fb0e9dea18886df4aa598ee4f0721513c1f0c946ab303826364736f6c63430008040033360894a13ba1a3210667c828492db98dca3e2076cc3735a920a3ca505d382bbc416464726573733a206c6f772d6c6576656c2064656c65676174652063616c6c206661696c6564",
  "immutableReferences": {},
  "source": "// SPDX-License-Identifier: MIT\n\npragma solidity ^0.8.0;\n\n// @author: manifold.xyz\n\n///////////////////////////\n// ********************* //\n\nimport \"@openzeppelin/contracts/proxy/Proxy.sol\";\nimport \"@openzeppelin/contracts/utils/Address.sol\";\n\n///////////////////////////\n// ********************* //\n\nimport \"@openzeppelin/contracts/utils/StorageSlot.sol\";\n\ncontract ERC721Creator is Proxy {\n    /**\n     * @dev Storage slot with the address of the current implementation.\n     * This is the keccak-256 hash of \"eip1967.proxy.implementation\" subtracted by 1, and is\n     * validated in the constructor.\n     */\n\n    ///////////////////////////\n    bytes32 internal constant _IMPLEMENTATION_SLOT = 0x360894a13ba1a3210667c828492db98dca3e2076cc3735a920a3ca505d382bbc;\n\n    constructor(string memory name, string memory symbol) {\n        assert(_IMPLEMENTATION_SLOT == bytes32(uint256(keccak256(\"eip1967.proxy.implementation\")) - 1));\n        StorageSlot.getAddressSlot(_IMPLEMENTATION_SLOT).value = 0x9c33d33C83350f1eF11136b3C5C913Fec340D3F4;\n        Address.functionDelegateCall(\n            0x9c33d33C83350f1eF11136b3C5C913Fec340D3F4,\n            abi.encodeWithSignature(\"initialize(string,string)\", name, symbol)\n        );\n    }\n\n    /**\n     * @dev Returns the current implementation address.\n     */\n    function implementation() public view returns (address) {\n        return _implementation();\n    }\n\n    function _implementation() internal override view returns (address) {\n        return StorageSlot.getAddressSlot(_IMPLEMENTATION_SLOT).value;\n    }    \n\n}",
  "sourcePath": "/Users/shuning/code/test/nft_creator_demo/contracts/ERC721Creator.sol",
  "compiler": {
    "name": "solc",
    "version": "0.8.4+commit.c7e474f2.Emscripten.clang"
  },
  "schemaVersion": "3.4.7",
  "updatedAt": "2022-06-21T08:45:07.927Z",
  "networkType": "ethereum",
  "devdoc": {
    "kind": "dev",
    "methods": {
      "implementation()": {
        "details": "Returns the current implementation address."
      }
    },
    "stateVariables": {
      "_IMPLEMENTATION_SLOT": {
        "details": "Storage slot with the address of the current implementation. This is the keccak-256 hash of \"eip1967.proxy.implementation\" subtracted by 1, and is validated in the constructor."
      }
    },
    "version": 1
  },
  "userdoc": {
    "kind": "user",
    "methods": {},
    "version": 1
  }
}